:0300000002004CAF
:200008000000E2FBEAF2802C0000E0FBEAF08024E6B50202EBF62200E2B50202EBF22200DE
:20002800E0B50202EBF02230F6E0A88220F5D3EAC6F582228B822230F6E6A88220F5D980EE
:01004800CFE8
:2000A5007508BF750901750A80750BD3750C01750D80750EE3750F017510807511EF7512BE
:1000C50001751380751409751502751680020049AE
:030049000200D5DD
:2000D500AE82AF83EE2508FBEF3509FCAD0A8B828C838DF012016DFB7D00EE250BF9EF35E7
:2000F5000CFAAC0D89828A838CF012016D7C002BF9EC3DFCEE250EFAEF350FFBAD108A8241
:200115008B838DF012016D7D0029FAED3CFDEE248DF582EF3401F583E4937B002AFCEB3D07
:20013500FBEE2511F9EF3512FAAD1389828A838DF012016D7D002CFCED3BFBEE2514FEEFB1
:180155003515FFAD168E828F838DF012016D7F002CF582EF3BF5832281
:20018D00494E464F3A636F6D70696C65725F76657273696F6E5B30303030303030342E30EF
:2001AD00303030303030352E30303030303030305D00494E464F3A636F6D70696C65725BB6
:2001CD00534443435D00494E464F3A706C6174666F726D5B5D00494E464F3A617263685BB6
:2001ED005D00494E464F3A7374616E646172645F64656661756C745B31315D00494E464F54
:19020D003A657874656E73696F6E735F64656661756C745B4F46465D0077
:06007B00E478FFF6D8FD59
:200059007900E94400601B7A00900226780175A000E493F2A308B8000205A0D9F4DAF27525
:02007900A0FFE6
:200081007800E84400600A790175A000E4F309D8FC7800E84400600C7900900001E4F0A37D
:0400A100D8FCD9FAB4
:0D004C00758119120189E5826003020049E7
:1C016D0020F71430F6148883A88220F507E6A88375830022E280F7E49322E022A1
:040189007582002259
:00000001FF
